:020000040800F2
:10000000280500200101000873150008BD13000831
:10001000711500086D010008111A000800000000A9
:10002000000000000000000000000000771500083C
:100030006F01000800000000751500087915000820
:100040001B0100081B0100081B0100081B01000820
:100050001B0100081B0100081B0100081B01000810
:100060001B0100081B0100081B0100081B01000800
:100070001B0100081B0100081B0100081B010008F0
:100080001B0100081B0100081B0100081B010008E0
:100090001B0100081B0100081B0100081B010008D0
:1000A0001B0100081B0100081B0100081B010008C0
:1000B0001B010008CD1500081B0100081B010008EA
:1000C0001B0100081B0100081B0100081B010008A0
:1000D0001B010008E51900081B0100081B010008AE
:1000E0001B0100081B0100081B010008DFF80CD0F1
:1000F00000F02AF800480047711D0008280500207C
:100100000648804706480047FEE7FEE7FEE7FEE7B1
:10011000FEE7FEE7FEE7FEE7FEE7FEE7CB15000899
:10012000ED000008D2B201E000F8012B491EFBD21D
:1001300070470022F6E710B513460A4604461946F2
:10014000FFF7F0FF204610BD064C074D06E0E068C3
:1001500040F0010394E8070098471034AC42F6D30E
:10016000FFF7C8FFF422000814230008FEE77047D9
:100170007047000010B590F821100024022903D028
:100180000421816301243DE001680A6822F00E0227
:100190000A6001680A6822F001020A601A4A0168CE
:1001A000914201D1012121E0174A1432914201D13B
:1001B00010211BE0144A2832914201D1891515E023
:1001C000114A3C32914201D189140FE00E4A50325B
:1001D000914202D14FF4803108E00B4A64329142DF
:1001E00002D14FF4801101E04FF08071064A083AC5
:1001F0005160012180F82110002180F82010416B0E
:1002000001B18847204610BD0800024070B5044681
:1002100000F008F90546601C02D004480078044448
:1002200000F000F9401BA042FAD370BD0800002086
:100230002DE9F84FDFF8B891002409F1040A0AF11A
:10024000040B23460F270BF1040EC9E00125A5403E
:100250002A40AA427DD1674ED1F804C0ACEB060813
:10026000B44532D014DCBCF1030F3AD009DCBCF148
:10027000000F2AD0BCF1010F1CD0BCF1020F31D10C
:100280001DE0BCF1110F17D0BCF1120F2AD119E0FB
:10029000B8F5881F19D006DCB8F5803F15D0B8F541
:1002A000801F1FD111E0B8F5001F0ED0B8F5041F54
:1002B00018D10AE0CB6815E0CB681B1D12E0CB68B3
:1002C00008330FE0CB680C330CE08B682BB1012BAB
:1002D0004FF0080303D0456104E0042302E0056108
:1002E00000E00023FF2A01D8064601E000F10406E1
:1002F0004FEA840501D9A5F12005D6F8008007FA58
:1003000005FC28EA0C0803FA05F548EA0508C6F8D2
:1003100000804D68ED0062D5374DAE6946F00106AC
:10032000AE61AD6924F0030605F001050095334D7B
:1003300006EB050CDCF80850A607360F07FA06F89E
:1003400025EA0805DFF8B880404503D14FF00008E2
:1003500017E044E0DFF8AC80404502D14FF00108DF
:100360000FE0DFF8A480404502D14FF0020808E01A
:10037000DFF89880404502D14FF0030801E04FF0CC
:10038000040808FA06F848EA0508CCF808804D6821
:10039000D9F80060ED034D4601D5164300E09643C1
:1003A0002E604D68DAF80060AD03554601D516435E
:1003B00000E096432E604D68DBF80060ED025D467C
:1003C00001D5164300E096432E604D68DEF80060CC
:1003D000AD02754601D5164300E096432E60641CBD
:1003E0000D682A46E5407FF431AFBDE8F88F000084
:1003F0000004014000001110001002400000014004
:1004000000080140000C01400010014000140140B0
:100410008068084000D0012070470AB10161704730
:100420000904FBE7014880687047000008000020CD
:1004300002488168027811448160704708000020FA
:10044000074810B5016841F010010160032000F079
:1004500075F8002000F006F800F024F8002010BD28
:100460000020024070B50D4D04464FF47A71287893
:10047000B1FBF0F00A490968B1FBF0F000F0ECFACA
:1004800048B9102C07D200222146501E00F036F841
:1004900000206C6070BD012070BD000008000020CD
:1004A000140000200C4808B5816941F00101816108
:1004B000816901F001010091C16941F08051C16180
:1004C000C06900F0805000900448416821F0E0616C
:1004D00041F00071416008BD001002400000014081
:1004E000002809DB00F01F02012191404009800033
:1004F00000F1E020C0F8001170470000F0B40E4B8E
:100500001B680C46C3F30223C3F10705042D00D971
:100510000425191D072901D2002300E0DB1E012656
:1005200006FA05F1491E214099409E40761E16406C
:100530003143F0BC01F06DBA0CED00E0064900F06B
:10054000070208684FF6FF03184040EA0220034AFA
:1005500010430860704700000CED00E00000FA0551
:100560002DE9F0470F46050061D0434E306800F09A
:100570000700B84209D2306820F0070038433060E5
:10058000306800F00700B84251D128683B4C810721
:1005900012D5400703D5606840F4E06060602878B9
:1005A000000703D5606840F4605060606068A96827
:1005B00020F0F000084360602878C00728D0686801
:1005C000012810D02168022810D0890700292EDACE
:1005D000616821F0030101436160FFF723FF80465A
:1005E00041F288390DE021688903EFE78901EDE7E1
:1005F000FFF718FFA0EB0801494502D90320BDE829
:10060000F0876068696800F00C00B0EB810FEFD1F3
:10061000306800F00700B8420BD9306820F00700BE
:1006200038433060306800F00700B84201D0012044
:10063000E5E72878400705D56068E96820F4E060C0
:10064000084360602878000706D56068296920F4AF
:10065000605040EAC100606000F038F86168084A04
:10066000C1F30311515CC8400649086006480068A0
:10067000FFF7F8FE0020C2E7002002400010024011
:10068000D4220008140000200C0000200448054972
:1006900000684968044AC1F30221515CC8407047B0
:1006A0001400002000100240E4220008044805491C
:1006B00000684968044AC1F3C221515CC8407047D0
:1006C0001400002000100240E422000812A185B0AE
:1006D0000FC98DE80F0014A0144A006804905168F7
:1006E000134801F00C03042B10D0082B0ED1C1F3DA
:1006F0008343C9031DF803000AD5516804AAC1F356
:100700004041515C0A4A5043B0FBF1F005B07047DC
:1007100008494843FAE700000203040506070809F0
:100720000A0B0C0D0E0F1010010200000010024009
:1007300000127A0000093D002DE9F84F040070D046
:100740002078C04DC00749D06868C0F381000128F7
:1007500007D06868C0F38100022809D16868C00327
:1007600006D52868800339D560680028E7D035E0D1
:100770006068B0F5803F0BD010B1B0F5A02F11D05C
:10078000286820F480302860286820F4802002E067
:10079000286840F480302860606890B1FFF742FE1E
:1007A00006460AE0286840F480202860F0E700BF91
:1007B000FFF738FE801B642873D828688003F7D5BC
:1007C0000CE0FFF72FFE064605E000BFFFF72AFE0C
:1007D000801B6428F0D828688003F7D420789A4ECC
:1007E00080074FF001094FF0000839D5686810F014
:1007F0000C0F07D06868C0F38100022809D168682F
:10080000C00306D42868800714D52069012808D1C0
:1008100010E02069B0B1C6F80090FFF703FE07466C
:1008200005E00AE1FFF7FEFDC01B0228C4D82868D6
:100830008007F7D52868616920F0F80040EAC10018
:1008400028600DE0C6F80080FFF7ECFD074604E0E5
:10085000FFF7E8FDC01B022823D828688007F7D4DB
:10086000207800072CD57948A169D9B1C0F800904B
:10087000FFF7D8FD074604E0FFF7D4FDC01B0228B0
:100880000FD8686A8007F7D571484FF4FA510068AD
:10089000B0FBF1F0009000BF0098411E0091FAD229
:1008A0000EE080E0C0F80080FFF7BCFD074604E0E2
:1008B000FFF7B8FDC01B022875D8686A8007F7D417
:1008C0002078400760D5E8690027C00008D4E869AF
:1008D00040F08050E861E869012700F08050009006
:1008E0005C480168C90513D40168834641F48071EE
:1008F0000160FFF797FD824606E000BFFFF792FD1B
:10090000A0EB0A0064284ED8DBF80000C005F5D53E
:10091000E06801280AD008B1052813D0286A20F021
:1009200001002862286A20F0040002E0286A40F0F2
:1009300001002862E06841F2883B98B1FFF772FD40
:1009400082460BE0286A40F004002862EEE700BF10
:10095000FFF768FDA0EB0A0159455AD8286A8007BD
:10096000F6D50CE0FFF75EFD824605E0FFF75AFD85
:10097000A0EB0A0159454CD8286A8007F6D41FB16C
:10098000E86920F08050E861E06988B36968C1F3E4
:100990008101022944D00228C6F8608004D0FFF704
:1009A00041FD044638E034E0FFF73CFD074604E033
:1009B000FFF738FDC01B02282BD828688001F7D428
:1009C000206AB0F5803F05D16868A16820F4003046
:1009D00008436860D4E908010843696821F4741188
:1009E00008436860C6F86090FFF71CFD044606E007
:1009F00025E000BFFFF716FD001B022809D8286874
:100A00008001F7D51BE000BFFFF70CFD001B02289B
:100A100002D90320BDE8F88F28688001F4D40EE0E5
:100A20000128F7D06868226A00F48031914204D12D
:100A3000616A00F47010884201D00120EAE70020CA
:100A4000E8E70000001002400000424280044242F9
:100A5000140000200070004010B5401EB0F1807FEF
:100A600001D3012010BD4FF0E02460610F21601719
:100A700000F0CFFF0020A06107202061002010BD02
:100A80007047704770B590F83C20012A26D00124A9
:100A900080F83C40022280F83D2003685A689D6837
:100AA00022F070060A6832435A600D4B02689A427F
:100AB00008D0B2F1804F05D00A4B9A4202D00A4BBF
:100AC0009A4204D1496825F080031943916080F867
:100AD0003D40002180F83C10084670BD022070BDEA
:100AE000002C0140000400400008004010B5040044
:100AF00003D094F83D0010B107E0012010BD0020A4
:100B000084F83C00204600F01FF8022084F83D00E5
:100B1000211D206800F060FD012084F8460084F863
:100B20003E0084F83F0084F8400084F8410084F8D7
:100B3000420084F8430084F8440084F8450084F8B7
:100B40003D00002010BD000008B500680B49884238
:100B500012D10B48C16941F00201C161C069002294
:100B600000F00200009011461D20FFF7C7FCBDE811
:100B700008401D20FFF7B4BC08BD00000004004081
:100B80000010024090F83D10012901D0012070476B
:100B9000022180F83D100168CA6842F00102CA6073
:100BA00000680B49884208D0B0F1804F05D0094950
:100BB000884202D00849884204D1816801F00701C7
:100BC000062903D0016841F001010160002070474F
:100BD000002C0140000400400008004070B50446AD
:100BE00090F83C00012817D0012584F83C500220E1
:100BF00084F83D002068826822F0770222F47F4268
:100C000082600868502830D00DDC20284DD005DCEB
:100C100098B310283BD148E0022070BD302844D062
:100C2000402834D139E0602828D0702806D0B0F5AB
:100C3000805F2CD0B0F5005F29D10AE0CB68D1E904
:100C40000121206800F00BFD2068816841F07701E8
:100C500009E0CB68D1E90121206800F000FD20689F
:100C6000816841F48041816011E0CA684968206868
:100C700000F0AAFD5021206807E016E0CA68496824
:100C8000206800F0B2FD6021206800F0F2FC84F8DA
:100C90003D50002084F83C0070BDCA684968206857
:100CA00000F092FD40212068EFE7226801461046DF
:100CB000EBE7704770B50446006801694FF0000526
:100CC000C943890715D4C168C943890711D4E91EEE
:100CD000016101202077206880698007204602D0CA
:100CE000FFF7E7FF04E000F0C9F8204600F058F9EC
:100CF000257720680169C943490717D4C168C943EA
:100D0000490713D46FF004010161022020772068A5
:100D1000806910F4407F204602D0FFF7CAFF04E04C
:100D200000F0ACF8204600F03BF925772068016917
:100D3000C943090716D4C168C943090712D46FF023
:100D400008010161042020772068C06980072046DF
:100D500002D0FFF7AEFF04E000F090F8204600F06C
:100D60001FF9257720680169C943C90617D4C168EE
:100D7000C943C90613D46FF0100101610820207720
:100D80002068C06910F4407F204602D0FFF791FF31
:100D900004E000F073F8204600F002F9257720689F
:100DA0000169C943C90708D1C168C943C90704D14A
:100DB000891E0161204600F043F920680169C9439A
:100DC000090609D4C168C943090605D46FF080013A
:100DD00001612046FFF754FE20680169C9434906B6
:100DE00009D4C168C943490605D46FF040010161C7
:100DF000204600F065F920680169C94389060BD4D3
:100E0000C168C943890607D46FF0200101612046FB
:100E1000BDE87040FFF735BE70BD000000B585B07D
:100E20000021009101910291039100680F498842CD
:100E30001AD10F48816941F00801816180696946D2
:100E400000F0080004902020009002200190039000
:100E50000848FFF7EDF90848416821F4406141F086
:100E6000E06141F40061416005B000BD0004004054
:100E700000100240000C014000000140704770B5B6
:100E8000044690F83C000D4601280AD0012084F861
:100E90003C0042B1042A18D0082A2AD00C2A4DD18D
:100EA00039E0022070BD206800F0ECFB2068816909
:100EB00041F0080181612068816921F004018161AC
:100EC000206881692A69114311E0206800F002FC62
:100ED0002068816941F4006181612068816921F4A1
:100EE00080618161206881692A6941EA022181610A
:100EF00024E0206800F01AFC2068C16941F0080174
:100F0000C1612068C16921F00401C1612068C16923
:100F10002A69114311E0206800F034FC2068C1699F
:100F200041F40061C1612068C16921F48061C1613F
:100F30002068C1692A6941EA0221C161002084F860
:100F40003C0070BD10B5040003D094F83D0010B112
:100F500007E0012010BD002084F83C00204600F08E
:100F60001EF8022084F83D00211D206800F034FBAB
:100F7000012084F8460084F83E0084F83F0084F89D
:100F8000400084F8410084F8420084F8430084F86B
:100F9000440084F8450084F83D00002010BD7047EF
:100FA0007047000010B50446022249B104290ED052
:100FB000082913D094F84100012816D0012010BD53
:100FC00094F83E000128F9D184F83E200FE094F80F
:100FD0003F000128F2D184F83F2008E094F8400057
:100FE0000128EBD184F8402001E084F8412001225F
:100FF000206800F027FB0F492068884203D1426C2B
:1010000042F4004242642068884208D0B0F1804F28
:1010100005D00949884202D00849884204D1816834
:1010200001F00701062903D0016841F001010160C8
:10103000002010BD002C01400004004000080040CA
:1010400030B400681B49884232D11B490878012816
:101050002ED148780F22401CC0B2B0FBF2F348708A
:1010600002FB1300002823D100234B708878401C1A
:10107000C2B212488A70072A19D2DFE802F01804B7
:10108000070A0D101300002202210DE000220421A6
:101090000AE00022082107E00022102104E00022DB
:1010A000202101E001223E2130BCFFF7B6B98B7050
:1010B00030BC7047000400400400002000080140DC
:1010C0007047704770B5026804461068D16853696C
:1010D00010F00F0F52D003F0010501F490762E436B
:1010E0005FD0C20705D0CA0503D5E26B42F001020A
:1010F000E263420705D5DA0703D0E26B42F0020251
:10110000E263820705D5DA0703D0E26B42F00402FE
:10111000E263020707D501F020022A4303D0E26B05
:1011200042F00802E263E26B002A33D0800604D565
:10113000880602D5204600F080FB20684069E16BFC
:10114000C0F38010090700D428B3204600F067FBE5
:101150002068416949061AD5416921F04001416181
:10116000606BA0B12D494163606BFFF703F8002865
:1011700010D0606B416BBDE870400847830610D506
:101180008B060ED52046BDE8704000F056BB2046C9
:10119000FFF797FF70BD2046FFF793FF0020E06345
:1011A00070BD03062BD50B0629D594F839002128EC
:1011B000F6D1A068B0F5805F01D12069B0B1206A96
:1011C000411C2162216800784860E08C401E0004C8
:1011D000000CE084E4D12068C16821F08001C16086
:1011E0002068C16841F04001C16070BD206A00887C
:1011F000C0F308005060206A801C2062E5E74006CA
:10120000F3D54806F1D5D168204621F04001D160E0
:10121000202184F8391000F0D0F870BD0F180008B4
:1012200070B5040004D094F83900002510B106E030
:10123000012070BD84F83850204600F023F82420A7
:1012400084F839002068C16821F40051C16020464B
:1012500000F03AFB2068016921F4904101612068A7
:10126000416921F02A0141612068C16841F40051BF
:10127000C160E563202084F8390084F83A0000203A
:1012800070BD000030B585B0002400940194029434
:1012900003940068184988422CD11848816941F4A8
:1012A00080418161816901F480410491816941F04B
:1012B000040181618069124D00F0040004904FF434
:1012C0000070009002200190032003906946284698
:1012D000FEF7AEFF2815CDE90004694628460294C2
:1012E000FEF7A6FF002211462520FFF707F925206B
:1012F000FFF7F6F805B030BD00380140001002409D
:1013000000080140704700002DE9F843044690F8BA
:1013100039001F4616460D4620284CD1C5B1BEB136
:1013200094F83800012846D0012084F838004FF0A6
:101330000008C4F83C80212084F83900FFF772F8D7
:10134000A6848146E684A068B0F5805F03D004E0FF
:101350000120BDE8F883206928B12E465FF0000522
:1013600084F838800EE00026FAE78021204600F05D
:1013700007FBA0B9AEB116F8010B21684860E08CFC
:10138000401EE084E08C4B464FF00002009700289E
:10139000EBD14FF04001204600F0F2FA30B10320CB
:1013A000D7E735F8020BC0F30800E6E7202084F801
:1013B00039000020CDE70220CBE77047FEE70000B0
:1013C0002DE9F04786B0002430480094019402943F
:1013D0000394816941F010018161816901F010017C
:1013E0000491816941F020018161816901F020014E
:1013F0000491816941F004018161816901F0040176
:101400000491816941F0080181618069012200F045
:101410000800DFF87C805503049029464046FEF71B
:10142000FCFFDFF8709001223E214846FEF7F5FFF1
:10143000DFF864A06F11002239465046FEF7EDFF39
:101440000095022601250396CDE9015469464046E0
:10145000FEF7EEFECDE90054694648460295FEF7D8
:10146000E7FE3E20CDE90005CDE902466946484643
:10147000FEF7DEFE00970396CDE90154694650461B
:10148000FEF7D6FE06B0BDE8F0870000001002406F
:101490000010014000080140000C014010B58EB062
:1014A00000240794089409940A940B941C2168461C
:1014B0000C94FEF73EFE1F481D49016041F61F4196
:1014C000C0E90114C721C0E9031480218161FFF73D
:1014D0000DFB08B1FEF74CFE4FF48050079007A9B2
:1014E0001448FFF77BFB08B1FEF742FE1148FFF7F7
:1014F00029FD08B1FEF73CFE0B940BA90D480C9496
:10150000FFF7C0FA08B1FEF733FE6020CDE9000412
:1015100002940422694607480494FFF7B0FC08B11E
:10152000FEF726FE0348FFF779FC0EB010BD000061
:10153000000400402C0000200C4810B50A4901604E
:101540004FF416514160002181600C22C160C0E956
:1015500004128161C161FFF763FE002803D0BDE87A
:101560001040FEF705BE10BD003801407400002099
:10157000FEE7704770477047FEF75ABF30B58FB02F
:1015800028216846FEF7D5FD14210AA8FEF7D1FDF3
:1015900001210804CDE900100024029402250491E1
:1015A000CDE907504FF4E01009906846FFF7C4F802
:1015B0000F20CDE90A056802CDE90C4002210AA8F6
:1015C0000E94FEF7CDFF0FB030BD70470148FFF716
:1015D00071BB00002C000020F0B50268164B174CC0
:1015E000174D4FF08047984205D0B84203D0A04233
:1015F00001D0A84203D122F070064A6832439842D3
:1016000005D0B84203D0A04201D0A84203D122F4B1
:101610004074CA6822434C6922F08002224302606F
:101620008A68C2620A688262984201D109690163CC
:1016300001214161F0BD0000002C01400004004088
:101640000008004010B501F01F030121046A994011
:101650008C430462016A9A401143016210BD10B5C7
:10166000846842EA032224F47F440A4322438260CE
:1016700010BD826822F070020A4342F007018160C7
:101680007047000030B5026A22F001020262026A6D
:101690004368846924F073050C682C4322F002052A
:1016A0008A682A430A4DA8420BD122F00805CA686D
:1016B00023F440732A434D6922F004021D438B69D1
:1016C0002B434360846149684163026230BD00007E
:1016D000002C014030B5026A22F010020262026A58
:1016E000436884690D6824F4E64444EA05248D685F
:1016F00022F0200242EA05120B4DA8420ED1CD681D
:1017000022F0800242EA05124D6923F4406343EA65
:1017100085038D6922F0400243EA850343608461BA
:1017200049688163026230BD002C014030B5026A15
:1017300022F480720262036A4268C46923F400736F
:1017400024F073050C682C438D6843EA05230C4D87
:10175000A8420ED1CD6823F4006343EA05234D6906
:1017600022F4405242EA05128D6923F4806342EA72
:1017700005124260C4614968C163036230BD000064
:10178000002C014030B5026A22F480520262046AE1
:101790004268C3690D6823F4E64343EA05238D6874
:1017A00024F4005444EA0534064DA84204D14D699E
:1017B00022F4804242EA85124260C36149680164B2
:1017C000046230BD002C014010B5036A046A24F0A5
:1017D00001040462846924F0F00444EA021423F052
:1017E0000A020A438461026210BD10B5036A23F045
:1017F000100303628369046A23F4704343EA0232EC
:1018000024F0A00343EA01118261016210BD10B50A
:10181000406A0021C185C184FFF753FC10BD0168F7
:10182000CA6822F49072CA6001684A6922F0010213
:101830004A61202180F83A10704710B590F83A10AC
:10184000222901D0022010BD82684FF480539A42B1
:1018500001D1016921B1816A9A421BD04AB10AE0E3
:101860000268816A5268C2F308020A80816A891C90
:1018700008E0026972B10268526802F07F020A70E1
:10188000816A491C8162C18D491E0904090CC18508
:1018900003D016E002685268F1E70168CA6822F0D6
:1018A0002002CA600168CA6822F48072CA600168B6
:1018B0004A6922F001024A61202180F83A10FFF7BC
:1018C00021FD002010BD000070B5044600680169CC
:1018D000E26821F44051114301612169A068084385
:1018E000616908432168CA6841F20C639A43024364
:1018F000CA6020684169A26921F4407111434161C5
:101900001E492068884202D1FEF7D0FE01E0FEF7B2
:10191000BDFE00EBC00101EB001260686421800095
:10192000B2FBF0F3B3FBF1F36FF018067343B2FBB5
:10193000F0F5B2FBF0F605EB8305322303EB05155A
:10194000B5FBF1F5B6FBF1F605F0F00505EB061574
:10195000B2FBF0F6B2FBF0F0B0FBF1F06FF0180262
:10196000504306EB800003EB0010B0FBF1F0216860
:1019700000F00F002844886070BD0000003801406E
:101980002DE9F041984617460E460446069D1DE097
:10199000681C1BD02DB1FEF745FDA0EB0800A84246
:1019A00014D92068C16821F4D071C16020684169F0
:1019B00021F001014161202084F8390084F83A00C7
:1019C000002084F838000320BDE8F081206800681A
:1019D00036EA000004D00020B842D9D00020F3E756
:1019E0000120F9E710B50848FFF76CFB07480068CD
:1019F000800607D50548001D0068BDE81040C0B24C
:101A000000F07CBB10BD00007400002000380140D5
:101A1000FEE70907090E002804DB00F1E02080F84A
:101A20000014704700F00F0000F1E02080F8141D52
:101A3000704702E008C8121F08C1002AFAD1704797
:101A40007047002001E001C1121F002AFBD170473E
:101A50000B4810B50178022000F0E6F9094801783A
:101A6000032000F025FA08480178042000F000FA6D
:101A700006480178BDE81040132000F0D5B90000F9
:101A800000000020010000200200002003000020D0
:101A900001780A02417811430A028178C078114323
:101AA00040EA0120704700002DE9F84F484981467F
:101AB00001EB0904E0780125464B05283FD006DC00
:101AC00005283AD2DFE800F017272B2F38000C2822
:101AD00073D007DC062834D008282ED1BDE8F84F93
:101AE000FFF7B6BF0E286DD02B2826D1A079BDE810
:101AF000F84F00F013B91978002031B1012100F03E
:101B0000E1FAC2B20321002012E0002100F0DAFA6B
:101B1000C2B21D70F6E7BDE8F84F00F049BA0022E6
:101B20000321022004E0A079D87000220321084696
:101B3000BDE8F84F00F0A0BB5D70BDE8F88F9D7068
:101B4000FBE760792179002640EA012730E000BFF9
:101B50001F4809EB06010844017A407AA51900EBF9
:101B6000012015F8068F1FFA80FBA878E97895F810
:101B700001A001EB002080B2009000F0CCF8002121
:101B8000154A05E012F811C0C44503D0491CC9B27A
:101B90008142F7D302EB41004178514504D1291D20
:101BA0004046009A00F01AF806EB0B00001D86B2C2
:101BB000BE42CDD3C1E700E004E0A01DBDE8F84F70
:101BC00000F0AAB9A079E179BDE8F84F00F0FABABF
:101BD000B40000201C000020EC2200082DE9F04198
:101BE0000B460146022818D003291CD0132812D115
:101BF0001846114600F086F9124F04004FF0000518
:101C00004FF0010615D03E702146132000F00CF96C
:101C1000012815D02846BDE8F081BDE8F041114605
:101C2000184600F03DB8BDE8F0411146184600F0F6
:101C30000DB801223E210448FEF7EFFB3D70E3E7BB
:101C40003046E8E7040000200008014070B500F0CD
:101C50005BF9124D044601212970042000F008F9B7
:101C6000012000F075FA00F051F9E0B2012100F016
:101C7000C1F8E0B2002100F0BDF802212970042073
:101C800000F0F6F8002000F063FA2146032000F08F
:101C90000FF9012800D0002070BD000002000020D4
:101CA00010B500F02FF91349040017D00120087077
:101CB0000146042000F0DCF8012000F049FA00F0B1
:101CC00025F921465FF03C0000F0D8F921460220BA
:101CD00000F0AAF8012800D0002010BD02200870F2
:101CE0000146042000F0C4F8002000F031FA21463B
:101CF0000020E9E702000020034610B5002002465C
:101D000006E000BF13F8014B521C2044C0B292B24F
:101D10008A42F7D310BD04207047000070B5024618
:101D200012484FF400514FF4FA74072A1CD2DFE82E
:101D300002F00909091B041B0900BDE870400022DC
:101D4000FEF76BBB00220D460646FEF766FB2046FB
:101D5000FEF75CFA012229463046FEF75EFB20467C
:101D6000BDE87040FEF752BA70BD0000001001409F
:101D7000FEF766FBFFF702FCFFF722FBFFF78EFB87
:101D8000FFF7DAFB17480068C16841F02001C16025
:101D90001548FEF7F7FE04211348FFF703F900F09A
:101DA000FBF9124E124DB4154FF4967700F00CFA71
:101DB00001213046FEF72CFB78B9002000F0BEF878
:101DC000012221462846FEF728FB3846FEF71EFA78
:101DD000002221462846FEF720FB00F0A9F8FFF775
:101DE0009DFFE3E7740000202C0000200008014064
:101DF000000C014070B50B4C0546052220680129F6
:101E0000826301D0012070BD4FF49670FEF7FEF999
:101E100020686D1D856340F6B830FEF7F7F90020A5
:101E200070BD00002C00002010B5104A0C46014681
:101E300012780020012A14D000F044F9012100F0AA
:101E400041F9002100F03EF9012100F03BF954B1C5
:101E50005FF0010100F036F902460321072000F08F
:101E60000BFA012010BD0021F4E70000280000203B
:101E700010B50E4A0C46014612780020012A12D0F5
:101E800000F020F9042100F01DF9002100F01AF9FA
:101E9000012100F017F9214600F014F90246032150
:101EA000072000F0E9F9012010BD00002800002003
:101EB00010B5134A0C46014612780020012A1DD0A5
:101EC00000F000F9022100F0FDF8002100F0FAF81E
:101ED000042100F0F7F8210E00F0F4F8C4F30741F4
:101EE00000F0F0F8C4F3072100F0ECF8E1B200F0E4
:101EF000E9F802460321072000F0BEF9012010BDD9
:101F00002800002000787047FFF7C2BD002203219F
:101F10000C2000F0B1B900000178012905D1007949
:101F2000012802D9014901200870704704000020EF
:101F300001480078704700001F000020064A10B5D5
:101F400001460020107000F0BDF8C2B20321BDE8C8
:101F50001040052000F090B91E00002030B538B1C7
:101F600031B1884202D98C18844212D2002305E094
:101F7000002030BDCD5CC5545B1C9BB29342F9D3AD
:101F800030BD8B1813F8014C8318521E03F8014C16
:101F900092B2002AF5D130BD0021002806D000E021
:101FA000491C10F8012B002AFAD10846704700009E
:101FB00010B5002422A0FFF7EFFF82B220A1204637
:101FC00000F072F8C4B220A0FFF7E6FF82B21EA1B3
:101FD000204600F069F8C4B220A0FFF7DDFF82B20E
:101FE0001EA1204600F060F8C4B21EA0FFF7D4FF87
:101FF00082B21CA1204600F057F8C4B21BA0FFF724
:10200000CBFF82B219A1204600F04EF8C4B219A04D
:10201000FFF7C2FF82B217A1204600F045F8C4B214
:1020200015A0FFF7B9FF82B213A1204600F03CF8DB
:10203000C2B20321BDE81040012000F01DB900002C
:102040007B2270223A2200006B7A656B3766387605
:10205000747A38636630767A00000000222C22768B
:10206000223A2200312E302E30000000222C226D28
:10207000223A0000320000007D00000070B5094CDB
:102080000546052022680129906309D14FF4967016
:10209000FEF7BCF80A20B5FBF0F02168401D88630C
:1020A000012070BD2C00002070B504460448154680
:1020B0002044801DFFF752FF601980B270BD000000
:1020C000EA000020024A0244401C917180B270472D
:1020D000EA0000200749D1E901329A4208D00648B7
:1020E000824201D3173888608A6812F8010B8A602F
:1020F000704700001C000020EA0000200B4910B5CA
:102100000B680B490A689C1A012C0DD09A4202D91F
:10211000D31A172B08D2074B9A4202D3A3F1170206
:102120000A6002F8010B0A6010BD000024000020C4
:1021300020000020EA00002001B54FF6FF730122C5
:1021400069460248FFF7E0F808BD0000740000206F
:102150002DE9F04101281AD005250E4F00244FF437
:102160008076012231463846FEF757F9C820FEF73F
:102170004DF8002231463846FEF74FF9C820FEF7E9
:1021800045F8641CE4B2AC42EBD3BDE8F081032512
:10219000E3E70000000C01400649054808600649D5
:1021A00008600649002008700549FF200870704744
:1021B000D300002020000020240000202800002060
:1021C0001F000020704700002DE9F0410024284E38
:1021D000284D06E0FFF77EFF014628883154401C59
:1021E000288028881F2803D200F068F80028F1D141
:1021F0002888072839D328E0315D552901D0641C8F
:1022000006E032195178AA29F9D1917811B1A41CAC
:10221000A4B21AE0117953790902C91D19448FB289
:10222000262F0CD8B84214DB781E81B21046FFF777
:1022300063FD2744B91911F8011C884201D0E41C40
:10224000E6E72046FFF730FCBCB22888001B0728D1
:10225000D2DA2888001B0204120C2A8005D031191A
:10226000BDE8F0410248FFF779BEBDE8F08100000B
:10227000B40000201800002070B50F4D55232B70BE
:10228000AA236B70A970E870100A28716A71D21DB8
:1022900094B2601E81B22846FFF72EFD291901F87D
:1022A000010C002C07D003E02878FFF745FF6D1CD8
:1022B000641EA4B2F8D270BDEA0000200448D0E940
:1022C0000110814201D001207047002070470000BA
:1022D0001C000020000000000000000001020304B8
:1022E00006070809000000000102030402010302BE
:1022F0000404130114230008000000202C00000037
:10230000321A0008402300082C000020FC040000C2
:10231000421A000800000000000000000100000058
:1023200010000000000000000024F4000000000085
:10233000000000000000000000000000000000009D
:04000005080000ED02
:00000001FF
